{
  "contractName": "Token",
  "abi": [
    {
      "inputs": [
        {
          "internalType": "string",
          "name": "_name",
          "type": "string"
        },
        {
          "internalType": "string",
          "name": "_symbol",
          "type": "string"
        }
      ],
      "stateMutability": "nonpayable",
      "type": "constructor"
    },
    {
      "anonymous": false,
      "inputs": [
        {
          "indexed": true,
          "internalType": "address",
          "name": "owner",
          "type": "address"
        },
        {
          "indexed": true,
          "internalType": "address",
          "name": "approved",
          "type": "address"
        },
        {
          "indexed": true,
          "internalType": "uint256",
          "name": "tokenId",
          "type": "uint256"
        }
      ],
      "name": "Approval",
      "type": "event"
    },
    {
      "anonymous": false,
      "inputs": [
        {
          "indexed": true,
          "internalType": "address",
          "name": "owner",
          "type": "address"
        },
        {
          "indexed": true,
          "internalType": "address",
          "name": "operator",
          "type": "address"
        },
        {
          "indexed": false,
          "internalType": "bool",
          "name": "approved",
          "type": "bool"
        }
      ],
      "name": "ApprovalForAll",
      "type": "event"
    },
    {
      "anonymous": false,
      "inputs": [
        {
          "indexed": true,
          "internalType": "address",
          "name": "previousOwner",
          "type": "address"
        },
        {
          "indexed": true,
          "internalType": "address",
          "name": "newOwner",
          "type": "address"
        }
      ],
      "name": "OwnershipTransferred",
      "type": "event"
    },
    {
      "anonymous": false,
      "inputs": [
        {
          "indexed": true,
          "internalType": "address",
          "name": "from",
          "type": "address"
        },
        {
          "indexed": true,
          "internalType": "address",
          "name": "to",
          "type": "address"
        },
        {
          "indexed": true,
          "internalType": "uint256",
          "name": "tokenId",
          "type": "uint256"
        }
      ],
      "name": "Transfer",
      "type": "event"
    },
    {
      "inputs": [
        {
          "internalType": "address",
          "name": "",
          "type": "address"
        },
        {
          "internalType": "uint256",
          "name": "",
          "type": "uint256"
        }
      ],
      "name": "OwnerToAllPets",
      "outputs": [
        {
          "internalType": "string",
          "name": "name",
          "type": "string"
        },
        {
          "internalType": "uint256",
          "name": "level",
          "type": "uint256"
        },
        {
          "internalType": "uint256",
          "name": "health",
          "type": "uint256"
        },
        {
          "internalType": "uint256",
          "name": "lastMeal",
          "type": "uint256"
        },
        {
          "internalType": "uint256",
          "name": "damage",
          "type": "uint256"
        },
        {
          "internalType": "uint256",
          "name": "petId",
          "type": "uint256"
        }
      ],
      "stateMutability": "view",
      "type": "function",
      "constant": true
    },
    {
      "inputs": [
        {
          "internalType": "address",
          "name": "",
          "type": "address"
        }
      ],
      "name": "OwnerToPetId",
      "outputs": [
        {
          "internalType": "uint256",
          "name": "",
          "type": "uint256"
        }
      ],
      "stateMutability": "view",
      "type": "function",
      "constant": true
    },
    {
      "inputs": [
        {
          "internalType": "uint256",
          "name": "",
          "type": "uint256"
        }
      ],
      "name": "PetIdToPetDetails",
      "outputs": [
        {
          "internalType": "string",
          "name": "name",
          "type": "string"
        },
        {
          "internalType": "uint256",
          "name": "level",
          "type": "uint256"
        },
        {
          "internalType": "uint256",
          "name": "health",
          "type": "uint256"
        },
        {
          "internalType": "uint256",
          "name": "lastMeal",
          "type": "uint256"
        },
        {
          "internalType": "uint256",
          "name": "damage",
          "type": "uint256"
        },
        {
          "internalType": "uint256",
          "name": "petId",
          "type": "uint256"
        }
      ],
      "stateMutability": "view",
      "type": "function",
      "constant": true
    },
    {
      "inputs": [
        {
          "internalType": "address",
          "name": "to",
          "type": "address"
        },
        {
          "internalType": "uint256",
          "name": "tokenId",
          "type": "uint256"
        }
      ],
      "name": "approve",
      "outputs": [],
      "stateMutability": "nonpayable",
      "type": "function"
    },
    {
      "inputs": [
        {
          "internalType": "address",
          "name": "owner",
          "type": "address"
        }
      ],
      "name": "balanceOf",
      "outputs": [
        {
          "internalType": "uint256",
          "name": "",
          "type": "uint256"
        }
      ],
      "stateMutability": "view",
      "type": "function",
      "constant": true
    },
    {
      "inputs": [
        {
          "internalType": "uint256",
          "name": "tokenId",
          "type": "uint256"
        }
      ],
      "name": "getApproved",
      "outputs": [
        {
          "internalType": "address",
          "name": "",
          "type": "address"
        }
      ],
      "stateMutability": "view",
      "type": "function",
      "constant": true
    },
    {
      "inputs": [
        {
          "internalType": "address",
          "name": "owner",
          "type": "address"
        },
        {
          "internalType": "address",
          "name": "operator",
          "type": "address"
        }
      ],
      "name": "isApprovedForAll",
      "outputs": [
        {
          "internalType": "bool",
          "name": "",
          "type": "bool"
        }
      ],
      "stateMutability": "view",
      "type": "function",
      "constant": true
    },
    {
      "inputs": [],
      "name": "name",
      "outputs": [
        {
          "internalType": "string",
          "name": "",
          "type": "string"
        }
      ],
      "stateMutability": "view",
      "type": "function",
      "constant": true
    },
    {
      "inputs": [],
      "name": "owner",
      "outputs": [
        {
          "internalType": "address",
          "name": "",
          "type": "address"
        }
      ],
      "stateMutability": "view",
      "type": "function",
      "constant": true
    },
    {
      "inputs": [
        {
          "internalType": "uint256",
          "name": "tokenId",
          "type": "uint256"
        }
      ],
      "name": "ownerOf",
      "outputs": [
        {
          "internalType": "address",
          "name": "",
          "type": "address"
        }
      ],
      "stateMutability": "view",
      "type": "function",
      "constant": true
    },
    {
      "inputs": [],
      "name": "renounceOwnership",
      "outputs": [],
      "stateMutability": "nonpayable",
      "type": "function"
    },
    {
      "inputs": [
        {
          "internalType": "address",
          "name": "from",
          "type": "address"
        },
        {
          "internalType": "address",
          "name": "to",
          "type": "address"
        },
        {
          "internalType": "uint256",
          "name": "tokenId",
          "type": "uint256"
        }
      ],
      "name": "safeTransferFrom",
      "outputs": [],
      "stateMutability": "nonpayable",
      "type": "function"
    },
    {
      "inputs": [
        {
          "internalType": "address",
          "name": "from",
          "type": "address"
        },
        {
          "internalType": "address",
          "name": "to",
          "type": "address"
        },
        {
          "internalType": "uint256",
          "name": "tokenId",
          "type": "uint256"
        },
        {
          "internalType": "bytes",
          "name": "_data",
          "type": "bytes"
        }
      ],
      "name": "safeTransferFrom",
      "outputs": [],
      "stateMutability": "nonpayable",
      "type": "function"
    },
    {
      "inputs": [
        {
          "internalType": "address",
          "name": "operator",
          "type": "address"
        },
        {
          "internalType": "bool",
          "name": "approved",
          "type": "bool"
        }
      ],
      "name": "setApprovalForAll",
      "outputs": [],
      "stateMutability": "nonpayable",
      "type": "function"
    },
    {
      "inputs": [
        {
          "internalType": "bytes4",
          "name": "interfaceId",
          "type": "bytes4"
        }
      ],
      "name": "supportsInterface",
      "outputs": [
        {
          "internalType": "bool",
          "name": "",
          "type": "bool"
        }
      ],
      "stateMutability": "view",
      "type": "function",
      "constant": true
    },
    {
      "inputs": [],
      "name": "symbol",
      "outputs": [
        {
          "internalType": "string",
          "name": "",
          "type": "string"
        }
      ],
      "stateMutability": "view",
      "type": "function",
      "constant": true
    },
    {
      "inputs": [
        {
          "internalType": "uint256",
          "name": "tokenId",
          "type": "uint256"
        }
      ],
      "name": "tokenURI",
      "outputs": [
        {
          "internalType": "string",
          "name": "",
          "type": "string"
        }
      ],
      "stateMutability": "view",
      "type": "function",
      "constant": true
    },
    {
      "inputs": [
        {
          "internalType": "address",
          "name": "from",
          "type": "address"
        },
        {
          "internalType": "address",
          "name": "to",
          "type": "address"
        },
        {
          "internalType": "uint256",
          "name": "tokenId",
          "type": "uint256"
        }
      ],
      "name": "transferFrom",
      "outputs": [],
      "stateMutability": "nonpayable",
      "type": "function"
    },
    {
      "inputs": [
        {
          "internalType": "address",
          "name": "newOwner",
          "type": "address"
        }
      ],
      "name": "transferOwnership",
      "outputs": [],
      "stateMutability": "nonpayable",
      "type": "function"
    },
    {
      "inputs": [
        {
          "internalType": "string",
          "name": "_name",
          "type": "string"
        }
      ],
      "name": "mint",
      "outputs": [],
      "stateMutability": "payable",
      "type": "function",
      "payable": true
    },
    {
      "inputs": [
        {
          "internalType": "uint256",
          "name": "_petId",
          "type": "uint256"
        }
      ],
      "name": "feed",
      "outputs": [],
      "stateMutability": "nonpayable",
      "type": "function"
    },
    {
      "inputs": [
        {
          "internalType": "uint256",
          "name": "_tokenId",
          "type": "uint256"
        }
      ],
      "name": "getTokenDetails",
      "outputs": [
        {
          "components": [
            {
              "internalType": "string",
              "name": "name",
              "type": "string"
            },
            {
              "internalType": "uint256",
              "name": "level",
              "type": "uint256"
            },
            {
              "internalType": "uint256",
              "name": "health",
              "type": "uint256"
            },
            {
              "internalType": "uint256",
              "name": "lastMeal",
              "type": "uint256"
            },
            {
              "internalType": "uint256",
              "name": "damage",
              "type": "uint256"
            },
            {
              "internalType": "uint256",
              "name": "petId",
              "type": "uint256"
            }
          ],
          "internalType": "struct Token.Pet",
          "name": "",
          "type": "tuple"
        }
      ],
      "stateMutability": "view",
      "type": "function",
      "constant": true
    },
    {
      "inputs": [
        {
          "internalType": "address",
          "name": "_owner",
          "type": "address"
        }
      ],
      "name": "getAllOwnersPets",
      "outputs": [
        {
          "components": [
            {
              "internalType": "string",
              "name": "name",
              "type": "string"
            },
            {
              "internalType": "uint256",
              "name": "level",
              "type": "uint256"
            },
            {
              "internalType": "uint256",
              "name": "health",
              "type": "uint256"
            },
            {
              "internalType": "uint256",
              "name": "lastMeal",
              "type": "uint256"
            },
            {
              "internalType": "uint256",
              "name": "damage",
              "type": "uint256"
            },
            {
              "internalType": "uint256",
              "name": "petId",
              "type": "uint256"
            }
          ],
          "internalType": "struct Token.Pet[]",
          "name": "",
          "type": "tuple[]"
        }
      ],
      "stateMutability": "view",
      "type": "function",
      "constant": true
    }
  ],
  "bytecode": "0x60806040526000600755620186a06008556001600955655af3107a4000600a553480156200002c57600080fd5b5060405162003bde38038062003bde8339818101604052810190620000529190620002a0565b818181600090805190602001906200006c9291906200017e565b508060019080519060200190620000859291906200017e565b505050620000a86200009c620000b060201b60201c565b620000b860201b60201c565b505062000444565b600033905090565b6000600660009054906101000a900473ffffffffffffffffffffffffffffffffffffffff16905081600660006101000a81548173ffffffffffffffffffffffffffffffffffffffff021916908373ffffffffffffffffffffffffffffffffffffffff1602179055508173ffffffffffffffffffffffffffffffffffffffff168173ffffffffffffffffffffffffffffffffffffffff167f8be0079c531659141344cd1fd0a4f28419497f9722a3daafe3b4186f6b6457e060405160405180910390a35050565b8280546200018c90620003b0565b90600052602060002090601f016020900481019282620001b05760008555620001fc565b82601f10620001cb57805160ff1916838001178555620001fc565b82800160010185558215620001fc579182015b82811115620001fb578251825591602001919060010190620001de565b5b5090506200020b91906200020f565b5090565b5b808211156200022a57600081600090555060010162000210565b5090565b6000620002456200023f8462000347565b62000313565b9050828152602081018484840111156200025e57600080fd5b6200026b8482856200037a565b509392505050565b600082601f8301126200028557600080fd5b8151620002978482602086016200022e565b91505092915050565b60008060408385031215620002b457600080fd5b600083015167ffffffffffffffff811115620002cf57600080fd5b620002dd8582860162000273565b925050602083015167ffffffffffffffff811115620002fb57600080fd5b620003098582860162000273565b9150509250929050565b6000604051905081810181811067ffffffffffffffff821117156200033d576200033c62000415565b5b8060405250919050565b600067ffffffffffffffff82111562000365576200036462000415565b5b601f19601f8301169050602081019050919050565b60005b838110156200039a5780820151818401526020810190506200037d565b83811115620003aa576000848401525b50505050565b60006002820490506001821680620003c957607f821691505b60208210811415620003e057620003df620003e6565b5b50919050565b7f4e487b7100000000000000000000000000000000000000000000000000000000600052602260045260246000fd5b7f4e487b7100000000000000000000000000000000000000000000000000000000600052604160045260246000fd5b61378a80620004546000396000f3fe6080604052600436106101405760003560e01c8063715018a6116100b6578063c35bdff91161006f578063c35bdff91461049c578063c87b56dd146104d9578063d85d3d2714610516578063e985e9c514610532578063f2fde38b1461056f578063f59dfdfb1461059857610140565b8063715018a6146103a05780638da5cb5b146103b757806395d89b41146103e2578063a22cb4651461040d578063b88d4fde14610436578063c1e037281461045f57610140565b806341fb7e281161010857806341fb7e281461023c57806342408b9f1461027e57806342842e0e146102bb5780635ccbd46c146102e45780636352211e1461032657806370a082311461036357610140565b806301ffc9a71461014557806306fdde0314610182578063081812fc146101ad578063095ea7b3146101ea57806323b872dd14610213575b600080fd5b34801561015157600080fd5b5061016c6004803603810190610167919061262a565b6105c1565b604051610179919061300e565b60405180910390f35b34801561018e57600080fd5b506101976106a3565b6040516101a49190613029565b60405180910390f35b3480156101b957600080fd5b506101d460048036038101906101cf91906126bd565b610735565b6040516101e19190612f85565b60405180910390f35b3480156101f657600080fd5b50610211600480360381019061020c91906125ee565b6107ba565b005b34801561021f57600080fd5b5061023a600480360381019061023591906124e8565b6108d2565b005b34801561024857600080fd5b50610263600480360381019061025e91906126bd565b610932565b6040516102759695949392919061304b565b60405180910390f35b34801561028a57600080fd5b506102a560048036038101906102a09190612483565b6109f6565b6040516102b29190612fec565b60405180910390f35b3480156102c757600080fd5b506102e260048036038101906102dd91906124e8565b610b58565b005b3480156102f057600080fd5b5061030b600480360381019061030691906125ee565b610b78565b60405161031d9695949392919061304b565b60405180910390f35b34801561033257600080fd5b5061034d600480360381019061034891906126bd565b610c59565b60405161035a9190612f85565b60405180910390f35b34801561036f57600080fd5b5061038a60048036038101906103859190612483565b610d0b565b60405161039791906132d5565b60405180910390f35b3480156103ac57600080fd5b506103b5610dc3565b005b3480156103c357600080fd5b506103cc610e4b565b6040516103d99190612f85565b60405180910390f35b3480156103ee57600080fd5b506103f7610e75565b6040516104049190613029565b60405180910390f35b34801561041957600080fd5b50610434600480360381019061042f91906125b2565b610f07565b005b34801561044257600080fd5b5061045d60048036038101906104589190612537565b611088565b005b34801561046b57600080fd5b50610486600480360381019061048191906126bd565b6110ea565b60405161049391906132b3565b60405180910390f35b3480156104a857600080fd5b506104c360048036038101906104be9190612483565b6111db565b6040516104d091906132d5565b60405180910390f35b3480156104e557600080fd5b5061050060048036038101906104fb91906126bd565b6111f3565b60405161050d9190613029565b60405180910390f35b610530600480360381019061052b919061267c565b61129a565b005b34801561053e57600080fd5b50610559600480360381019061055491906124ac565b6114ef565b604051610566919061300e565b60405180910390f35b34801561057b57600080fd5b5061059660048036038101906105919190612483565b611583565b005b3480156105a457600080fd5b506105bf60048036038101906105ba91906126bd565b61167b565b005b60007f80ac58cd000000000000000000000000000000000000000000000000000000007bffffffffffffffffffffffffffffffffffffffffffffffffffffffff1916827bffffffffffffffffffffffffffffffffffffffffffffffffffffffff1916148061068c57507f5b5e139f000000000000000000000000000000000000000000000000000000007bffffffffffffffffffffffffffffffffffffffffffffffffffffffff1916827bffffffffffffffffffffffffffffffffffffffffffffffffffffffff1916145b8061069c575061069b826116e2565b5b9050919050565b6060600080546106b29061357f565b80601f01602080910402602001604051908101604052809291908181526020018280546106de9061357f565b801561072b5780601f106107005761010080835404028352916020019161072b565b820191906000526020600020905b81548152906001019060200180831161070e57829003601f168201915b5050505050905090565b60006107408261174c565b61077f576040517f08c379a0000000000000000000000000000000000000000000000000000000008152600401610776906131f3565b60405180910390fd5b6004600083815260200190815260200160002060009054906101000a900473ffffffffffffffffffffffffffffffffffffffff169050919050565b60006107c582610c59565b90508073ffffffffffffffffffffffffffffffffffffffff168373ffffffffffffffffffffffffffffffffffffffff161415610836576040517f08c379a000000000000000000000000000000000000000000000000000000000815260040161082d90613273565b60405180910390fd5b8073ffffffffffffffffffffffffffffffffffffffff166108556117b8565b73ffffffffffffffffffffffffffffffffffffffff16148061088457506108838161087e6117b8565b6114ef565b5b6108c3576040517f08c379a00000000000000000000000000000000000000000000000000000000081526004016108ba90613173565b60405180910390fd5b6108cd83836117c0565b505050565b6108e36108dd6117b8565b82611879565b610922576040517f08c379a000000000000000000000000000000000000000000000000000000000815260040161091990613293565b60405180910390fd5b61092d838383611957565b505050565b600e6020528060005260406000206000915090508060000180546109559061357f565b80601f01602080910402602001604051908101604052809291908181526020018280546109819061357f565b80156109ce5780601f106109a3576101008083540402835291602001916109ce565b820191906000526020600020905b8154815290600101906020018083116109b157829003601f168201915b5050505050908060010154908060020154908060030154908060040154908060050154905086565b6060600d60008373ffffffffffffffffffffffffffffffffffffffff1673ffffffffffffffffffffffffffffffffffffffff168152602001908152602001600020805480602002602001604051908101604052809291908181526020016000905b82821015610b4d57838290600052602060002090600602016040518060c0016040529081600082018054610a8a9061357f565b80601f0160208091040260200160405190810160405280929190818152602001828054610ab69061357f565b8015610b035780601f10610ad857610100808354040283529160200191610b03565b820191906000526020600020905b815481529060010190602001808311610ae657829003601f168201915b505050505081526020016001820154815260200160028201548152602001600382015481526020016004820154815260200160058201548152505081526020019060010190610a57565b505050509050919050565b610b7383838360405180602001604052806000815250611088565b505050565b600d6020528160005260406000208181548110610b9457600080fd5b906000526020600020906006020160009150915050806000018054610bb89061357f565b80601f0160208091040260200160405190810160405280929190818152602001828054610be49061357f565b8015610c315780601f10610c0657610100808354040283529160200191610c31565b820191906000526020600020905b815481529060010190602001808311610c1457829003601f168201915b5050505050908060010154908060020154908060030154908060040154908060050154905086565b6000806002600084815260200190815260200160002060009054906101000a900473ffffffffffffffffffffffffffffffffffffffff169050600073ffffffffffffffffffffffffffffffffffffffff168173ffffffffffffffffffffffffffffffffffffffff161415610d02576040517f08c379a0000000000000000000000000000000000000000000000000000000008152600401610cf9906131b3565b60405180910390fd5b80915050919050565b60008073ffffffffffffffffffffffffffffffffffffffff168273ffffffffffffffffffffffffffffffffffffffff161415610d7c576040517f08c379a0000000000000000000000000000000000000000000000000000000008152600401610d7390613193565b60405180910390fd5b600360008373ffffffffffffffffffffffffffffffffffffffff1673ffffffffffffffffffffffffffffffffffffffff168152602001908152602001600020549050919050565b610dcb6117b8565b73ffffffffffffffffffffffffffffffffffffffff16610de9610e4b565b73ffffffffffffffffffffffffffffffffffffffff1614610e3f576040517f08c379a0000000000000000000000000000000000000000000000000000000008152600401610e3690613213565b60405180910390fd5b610e496000611bb3565b565b6000600660009054906101000a900473ffffffffffffffffffffffffffffffffffffffff16905090565b606060018054610e849061357f565b80601f0160208091040260200160405190810160405280929190818152602001828054610eb09061357f565b8015610efd5780601f10610ed257610100808354040283529160200191610efd565b820191906000526020600020905b815481529060010190602001808311610ee057829003601f168201915b5050505050905090565b610f0f6117b8565b73ffffffffffffffffffffffffffffffffffffffff168273ffffffffffffffffffffffffffffffffffffffff161415610f7d576040517f08c379a0000000000000000000000000000000000000000000000000000000008152600401610f7490613133565b60405180910390fd5b8060056000610f8a6117b8565b73ffffffffffffffffffffffffffffffffffffffff1673ffffffffffffffffffffffffffffffffffffffff16815260200190815260200160002060008473ffffffffffffffffffffffffffffffffffffffff1673ffffffffffffffffffffffffffffffffffffffff16815260200190815260200160002060006101000a81548160ff0219169083151502179055508173ffffffffffffffffffffffffffffffffffffffff166110376117b8565b73ffffffffffffffffffffffffffffffffffffffff167f17307eab39ab6107e8899845ad3d59bd9653f200f220920489ca2b5937696c318360405161107c919061300e565b60405180910390a35050565b6110996110936117b8565b83611879565b6110d8576040517f08c379a00000000000000000000000000000000000000000000000000000000081526004016110cf90613293565b60405180910390fd5b6110e484848484611c79565b50505050565b6110f2612271565b600e60008381526020019081526020016000206040518060c00160405290816000820180546111209061357f565b80601f016020809104026020016040519081016040528092919081815260200182805461114c9061357f565b80156111995780601f1061116e57610100808354040283529160200191611199565b820191906000526020600020905b81548152906001019060200180831161117c57829003601f168201915b50505050508152602001600182015481526020016002820154815260200160038201548152602001600482015481526020016005820154815250509050919050565b600c6020528060005260406000206000915090505481565b60606111fe8261174c565b61123d576040517f08c379a000000000000000000000000000000000000000000000000000000000815260040161123490613253565b60405180910390fd5b6000611247611cd5565b905060008151116112675760405180602001604052806000815250611292565b8061127184611cec565b604051602001611282929190612f61565b6040516020818303038152906040525b915050919050565b6112a26117b8565b73ffffffffffffffffffffffffffffffffffffffff166112c0610e4b565b73ffffffffffffffffffffffffffffffffffffffff1614611316576040517f08c379a000000000000000000000000000000000000000000000000000000000815260040161130d90613213565b60405180910390fd5b60006040518060c00160405280838152602001600754815260200160085481526020014281526020016009548152602001600b54815250905061136b33600b5460405180602001604052806000815250611e99565b80600e6000600b548152602001908152602001600020600082015181600001908051906020019061139d9291906122a7565b506020820151816001015560408201518160020155606082015181600301556080820151816004015560a08201518160050155905050600d60003373ffffffffffffffffffffffffffffffffffffffff1673ffffffffffffffffffffffffffffffffffffffff16815260200190815260200160002081908060018154018082558091505060019003906000526020600020906006020160009091909190915060008201518160000190805190602001906114589291906122a7565b506020820151816001015560408201518160020155606082015181600301556080820151816004015560a082015181600501555050600b54600c60003373ffffffffffffffffffffffffffffffffffffffff1673ffffffffffffffffffffffffffffffffffffffff16815260200190815260200160002081905550600b60008154809291906114e6906135b1565b91905055505050565b6000600560008473ffffffffffffffffffffffffffffffffffffffff1673ffffffffffffffffffffffffffffffffffffffff16815260200190815260200160002060008373ffffffffffffffffffffffffffffffffffffffff1673ffffffffffffffffffffffffffffffffffffffff16815260200190815260200160002060009054906101000a900460ff16905092915050565b61158b6117b8565b73ffffffffffffffffffffffffffffffffffffffff166115a9610e4b565b73ffffffffffffffffffffffffffffffffffffffff16146115ff576040517f08c379a00000000000000000000000000000000000000000000000000000000081526004016115f690613213565b60405180910390fd5b600073ffffffffffffffffffffffffffffffffffffffff168173ffffffffffffffffffffffffffffffffffffffff16141561166f576040517f08c379a0000000000000000000000000000000000000000000000000000000008152600401611666906130d3565b60405180910390fd5b61167881611bb3565b50565b42600e600083815260200190815260200160002060020154600e6000848152602001908152602001600020600301546116b4919061340e565b116116be57600080fd5b6000600e600083815260200190815260200160002090504281600301819055505050565b60007f01ffc9a7000000000000000000000000000000000000000000000000000000007bffffffffffffffffffffffffffffffffffffffffffffffffffffffff1916827bffffffffffffffffffffffffffffffffffffffffffffffffffffffff1916149050919050565b60008073ffffffffffffffffffffffffffffffffffffffff166002600084815260200190815260200160002060009054906101000a900473ffffffffffffffffffffffffffffffffffffffff1673ffffffffffffffffffffffffffffffffffffffff1614159050919050565b600033905090565b816004600083815260200190815260200160002060006101000a81548173ffffffffffffffffffffffffffffffffffffffff021916908373ffffffffffffffffffffffffffffffffffffffff160217905550808273ffffffffffffffffffffffffffffffffffffffff1661183383610c59565b73ffffffffffffffffffffffffffffffffffffffff167f8c5be1e5ebec7d5bd14f71427d1e84f3dd0314c0f7b2291e5b200ac8c7c3b92560405160405180910390a45050565b60006118848261174c565b6118c3576040517f08c379a00000000000000000000000000000000000000000000000000000000081526004016118ba90613153565b60405180910390fd5b60006118ce83610c59565b90508073ffffffffffffffffffffffffffffffffffffffff168473ffffffffffffffffffffffffffffffffffffffff16148061193d57508373ffffffffffffffffffffffffffffffffffffffff1661192584610735565b73ffffffffffffffffffffffffffffffffffffffff16145b8061194e575061194d81856114ef565b5b91505092915050565b8273ffffffffffffffffffffffffffffffffffffffff1661197782610c59565b73ffffffffffffffffffffffffffffffffffffffff16146119cd576040517f08c379a00000000000000000000000000000000000000000000000000000000081526004016119c490613233565b60405180910390fd5b600073ffffffffffffffffffffffffffffffffffffffff168273ffffffffffffffffffffffffffffffffffffffff161415611a3d576040517f08c379a0000000000000000000000000000000000000000000000000000000008152600401611a3490613113565b60405180910390fd5b611a48838383611ef4565b611a536000826117c0565b6001600360008573ffffffffffffffffffffffffffffffffffffffff1673ffffffffffffffffffffffffffffffffffffffff1681526020019081526020016000206000828254611aa39190613495565b925050819055506001600360008473ffffffffffffffffffffffffffffffffffffffff1673ffffffffffffffffffffffffffffffffffffffff1681526020019081526020016000206000828254611afa919061340e565b92505081905550816002600083815260200190815260200160002060006101000a81548173ffffffffffffffffffffffffffffffffffffffff021916908373ffffffffffffffffffffffffffffffffffffffff160217905550808273ffffffffffffffffffffffffffffffffffffffff168473ffffffffffffffffffffffffffffffffffffffff167fddf252ad1be2c89b69c2b068fc378daa952ba7f163c4a11628f55a4df523b3ef60405160405180910390a4505050565b6000600660009054906101000a900473ffffffffffffffffffffffffffffffffffffffff16905081600660006101000a81548173ffffffffffffffffffffffffffffffffffffffff021916908373ffffffffffffffffffffffffffffffffffffffff1602179055508173ffffffffffffffffffffffffffffffffffffffff168173ffffffffffffffffffffffffffffffffffffffff167f8be0079c531659141344cd1fd0a4f28419497f9722a3daafe3b4186f6b6457e060405160405180910390a35050565b611c84848484611957565b611c9084848484611ef9565b611ccf576040517f08c379a0000000000000000000000000000000000000000000000000000000008152600401611cc6906130b3565b60405180910390fd5b50505050565b606060405180602001604052806000815250905090565b60606000821415611d34576040518060400160405280600181526020017f30000000000000000000000000000000000000000000000000000000000000008152509050611e94565b600082905060005b60008214611d66578080611d4f906135b1565b915050600a82611d5f9190613464565b9150611d3c565b60008167ffffffffffffffff811115611da8577f4e487b7100000000000000000000000000000000000000000000000000000000600052604160045260246000fd5b6040519080825280601f01601f191660200182016040528015611dda5781602001600182028036833780820191505090505b5090505b60008514611e8d57600182611df39190613495565b9150600a85611e0291906135fa565b6030611e0e919061340e565b60f81b818381518110611e4a577f4e487b7100000000000000000000000000000000000000000000000000000000600052603260045260246000fd5b60200101907effffffffffffffffffffffffffffffffffffffffffffffffffffffffffffff1916908160001a905350600a85611e869190613464565b9450611dde565b8093505050505b919050565b611ea38383612090565b611eb06000848484611ef9565b611eef576040517f08c379a0000000000000000000000000000000000000000000000000000000008152600401611ee6906130b3565b60405180910390fd5b505050565b505050565b6000611f1a8473ffffffffffffffffffffffffffffffffffffffff1661225e565b15612083578373ffffffffffffffffffffffffffffffffffffffff1663150b7a02611f436117b8565b8786866040518563ffffffff1660e01b8152600401611f659493929190612fa0565b602060405180830381600087803b158015611f7f57600080fd5b505af1925050508015611fb057506040513d601f19601f82011682018060405250810190611fad9190612653565b60015b612033573d8060008114611fe0576040519150601f19603f3d011682016040523d82523d6000602084013e611fe5565b606091505b5060008151141561202b576040517f08c379a0000000000000000000000000000000000000000000000000000000008152600401612022906130b3565b60405180910390fd5b805181602001fd5b63150b7a0260e01b7bffffffffffffffffffffffffffffffffffffffffffffffffffffffff1916817bffffffffffffffffffffffffffffffffffffffffffffffffffffffff191614915050612088565b600190505b949350505050565b600073ffffffffffffffffffffffffffffffffffffffff168273ffffffffffffffffffffffffffffffffffffffff161415612100576040517f08c379a00000000000000000000000000000000000000000000000000000000081526004016120f7906131d3565b60405180910390fd5b6121098161174c565b15612149576040517f08c379a0000000000000000000000000000000000000000000000000000000008152600401612140906130f3565b60405180910390fd5b61215560008383611ef4565b6001600360008473ffffffffffffffffffffffffffffffffffffffff1673ffffffffffffffffffffffffffffffffffffffff16815260200190815260200160002060008282546121a5919061340e565b92505081905550816002600083815260200190815260200160002060006101000a81548173ffffffffffffffffffffffffffffffffffffffff021916908373ffffffffffffffffffffffffffffffffffffffff160217905550808273ffffffffffffffffffffffffffffffffffffffff16600073ffffffffffffffffffffffffffffffffffffffff167fddf252ad1be2c89b69c2b068fc378daa952ba7f163c4a11628f55a4df523b3ef60405160405180910390a45050565b600080823b905060008111915050919050565b6040518060c001604052806060815260200160008152602001600081526020016000815260200160008152602001600081525090565b8280546122b39061357f565b90600052602060002090601f0160209004810192826122d5576000855561231c565b82601f106122ee57805160ff191683800117855561231c565b8280016001018555821561231c579182015b8281111561231b578251825591602001919060010190612300565b5b509050612329919061232d565b5090565b5b8082111561234657600081600090555060010161232e565b5090565b600061235d61235884613321565b6132f0565b90508281526020810184848401111561237557600080fd5b61238084828561353d565b509392505050565b600061239b61239684613351565b6132f0565b9050828152602081018484840111156123b357600080fd5b6123be84828561353d565b509392505050565b6000813590506123d5816136f8565b92915050565b6000813590506123ea8161370f565b92915050565b6000813590506123ff81613726565b92915050565b60008151905061241481613726565b92915050565b600082601f83011261242b57600080fd5b813561243b84826020860161234a565b91505092915050565b600082601f83011261245557600080fd5b8135612465848260208601612388565b91505092915050565b60008135905061247d8161373d565b92915050565b60006020828403121561249557600080fd5b60006124a3848285016123c6565b91505092915050565b600080604083850312156124bf57600080fd5b60006124cd858286016123c6565b92505060206124de858286016123c6565b9150509250929050565b6000806000606084860312156124fd57600080fd5b600061250b868287016123c6565b935050602061251c868287016123c6565b925050604061252d8682870161246e565b9150509250925092565b6000806000806080858703121561254d57600080fd5b600061255b878288016123c6565b945050602061256c878288016123c6565b935050604061257d8782880161246e565b925050606085013567ffffffffffffffff81111561259a57600080fd5b6125a68782880161241a565b91505092959194509250565b600080604083850312156125c557600080fd5b60006125d3858286016123c6565b92505060206125e4858286016123db565b9150509250929050565b6000806040838503121561260157600080fd5b600061260f858286016123c6565b92505060206126208582860161246e565b9150509250929050565b60006020828403121561263c57600080fd5b600061264a848285016123f0565b91505092915050565b60006020828403121561266557600080fd5b600061267384828501612405565b91505092915050565b60006020828403121561268e57600080fd5b600082013567ffffffffffffffff8111156126a857600080fd5b6126b484828501612444565b91505092915050565b6000602082840312156126cf57600080fd5b60006126dd8482850161246e565b91505092915050565b60006126f28383612e31565b905092915050565b612703816134c9565b82525050565b600061271482613391565b61271e81856133bf565b93508360208202850161273085613381565b8060005b8581101561276c578484038952815161274d85826126e6565b9450612758836133b2565b925060208a01995050600181019050612734565b50829750879550505050505092915050565b612787816134db565b82525050565b60006127988261339c565b6127a281856133d0565b93506127b281856020860161354c565b6127bb816136e7565b840191505092915050565b60006127d1826133a7565b6127db81856133e1565b93506127eb81856020860161354c565b6127f4816136e7565b840191505092915050565b600061280a826133a7565b61281481856133f2565b935061282481856020860161354c565b61282d816136e7565b840191505092915050565b6000612843826133a7565b61284d8185613403565b935061285d81856020860161354c565b80840191505092915050565b60006128766032836133f2565b91507f4552433732313a207472616e7366657220746f206e6f6e20455243373231526560008301527f63656976657220696d706c656d656e74657200000000000000000000000000006020830152604082019050919050565b60006128dc6026836133f2565b91507f4f776e61626c653a206e6577206f776e657220697320746865207a65726f206160008301527f64647265737300000000000000000000000000000000000000000000000000006020830152604082019050919050565b6000612942601c836133f2565b91507f4552433732313a20746f6b656e20616c7265616479206d696e746564000000006000830152602082019050919050565b60006129826024836133f2565b91507f4552433732313a207472616e7366657220746f20746865207a65726f2061646460008301527f72657373000000000000000000000000000000000000000000000000000000006020830152604082019050919050565b60006129e86019836133f2565b91507f4552433732313a20617070726f766520746f2063616c6c6572000000000000006000830152602082019050919050565b6000612a28602c836133f2565b91507f4552433732313a206f70657261746f7220717565727920666f72206e6f6e657860008301527f697374656e7420746f6b656e00000000000000000000000000000000000000006020830152604082019050919050565b6000612a8e6038836133f2565b91507f4552433732313a20617070726f76652063616c6c6572206973206e6f74206f7760008301527f6e6572206e6f7220617070726f76656420666f7220616c6c00000000000000006020830152604082019050919050565b6000612af4602a836133f2565b91507f4552433732313a2062616c616e636520717565727920666f7220746865207a6560008301527f726f2061646472657373000000000000000000000000000000000000000000006020830152604082019050919050565b6000612b5a6029836133f2565b91507f4552433732313a206f776e657220717565727920666f72206e6f6e657869737460008301527f656e7420746f6b656e00000000000000000000000000000000000000000000006020830152604082019050919050565b6000612bc06020836133f2565b91507f4552433732313a206d696e7420746f20746865207a65726f20616464726573736000830152602082019050919050565b6000612c00602c836133f2565b91507f4552433732313a20617070726f76656420717565727920666f72206e6f6e657860008301527f697374656e7420746f6b656e00000000000000000000000000000000000000006020830152604082019050919050565b6000612c666020836133f2565b91507f4f776e61626c653a2063616c6c6572206973206e6f7420746865206f776e65726000830152602082019050919050565b6000612ca66029836133f2565b91507f4552433732313a207472616e73666572206f6620746f6b656e2074686174206960008301527f73206e6f74206f776e00000000000000000000000000000000000000000000006020830152604082019050919050565b6000612d0c602f836133f2565b91507f4552433732314d657461646174613a2055524920717565727920666f72206e6f60008301527f6e6578697374656e7420746f6b656e00000000000000000000000000000000006020830152604082019050919050565b6000612d726021836133f2565b91507f4552433732313a20617070726f76616c20746f2063757272656e74206f776e6560008301527f72000000000000000000000000000000000000000000000000000000000000006020830152604082019050919050565b6000612dd86031836133f2565b91507f4552433732313a207472616e736665722063616c6c6572206973206e6f74206f60008301527f776e6572206e6f7220617070726f7665640000000000000000000000000000006020830152604082019050919050565b600060c0830160008301518482036000860152612e4e82826127c6565b9150506020830151612e636020860182612f43565b506040830151612e766040860182612f43565b506060830151612e896060860182612f43565b506080830151612e9c6080860182612f43565b5060a0830151612eaf60a0860182612f43565b508091505092915050565b600060c0830160008301518482036000860152612ed782826127c6565b9150506020830151612eec6020860182612f43565b506040830151612eff6040860182612f43565b506060830151612f126060860182612f43565b506080830151612f256080860182612f43565b5060a0830151612f3860a0860182612f43565b508091505092915050565b612f4c81613533565b82525050565b612f5b81613533565b82525050565b6000612f6d8285612838565b9150612f798284612838565b91508190509392505050565b6000602082019050612f9a60008301846126fa565b92915050565b6000608082019050612fb560008301876126fa565b612fc260208301866126fa565b612fcf6040830185612f52565b8181036060830152612fe1818461278d565b905095945050505050565b600060208201905081810360008301526130068184612709565b905092915050565b6000602082019050613023600083018461277e565b92915050565b6000602082019050818103600083015261304381846127ff565b905092915050565b600060c082019050818103600083015261306581896127ff565b90506130746020830188612f52565b6130816040830187612f52565b61308e6060830186612f52565b61309b6080830185612f52565b6130a860a0830184612f52565b979650505050505050565b600060208201905081810360008301526130cc81612869565b9050919050565b600060208201905081810360008301526130ec816128cf565b9050919050565b6000602082019050818103600083015261310c81612935565b9050919050565b6000602082019050818103600083015261312c81612975565b9050919050565b6000602082019050818103600083015261314c816129db565b9050919050565b6000602082019050818103600083015261316c81612a1b565b9050919050565b6000602082019050818103600083015261318c81612a81565b9050919050565b600060208201905081810360008301526131ac81612ae7565b9050919050565b600060208201905081810360008301526131cc81612b4d565b9050919050565b600060208201905081810360008301526131ec81612bb3565b9050919050565b6000602082019050818103600083015261320c81612bf3565b9050919050565b6000602082019050818103600083015261322c81612c59565b9050919050565b6000602082019050818103600083015261324c81612c99565b9050919050565b6000602082019050818103600083015261326c81612cff565b9050919050565b6000602082019050818103600083015261328c81612d65565b9050919050565b600060208201905081810360008301526132ac81612dcb565b9050919050565b600060208201905081810360008301526132cd8184612eba565b905092915050565b60006020820190506132ea6000830184612f52565b92915050565b6000604051905081810181811067ffffffffffffffff82111715613317576133166136b8565b5b8060405250919050565b600067ffffffffffffffff82111561333c5761333b6136b8565b5b601f19601f8301169050602081019050919050565b600067ffffffffffffffff82111561336c5761336b6136b8565b5b601f19601f8301169050602081019050919050565b6000819050602082019050919050565b600081519050919050565b600081519050919050565b600081519050919050565b6000602082019050919050565b600082825260208201905092915050565b600082825260208201905092915050565b600082825260208201905092915050565b600082825260208201905092915050565b600081905092915050565b600061341982613533565b915061342483613533565b9250827fffffffffffffffffffffffffffffffffffffffffffffffffffffffffffffffff038211156134595761345861362b565b5b828201905092915050565b600061346f82613533565b915061347a83613533565b92508261348a5761348961365a565b5b828204905092915050565b60006134a082613533565b91506134ab83613533565b9250828210156134be576134bd61362b565b5b828203905092915050565b60006134d482613513565b9050919050565b60008115159050919050565b60007fffffffff0000000000000000000000000000000000000000000000000000000082169050919050565b600073ffffffffffffffffffffffffffffffffffffffff82169050919050565b6000819050919050565b82818337600083830152505050565b60005b8381101561356a57808201518184015260208101905061354f565b83811115613579576000848401525b50505050565b6000600282049050600182168061359757607f821691505b602082108114156135ab576135aa613689565b5b50919050565b60006135bc82613533565b91507fffffffffffffffffffffffffffffffffffffffffffffffffffffffffffffffff8214156135ef576135ee61362b565b5b600182019050919050565b600061360582613533565b915061361083613533565b9250826136205761361f61365a565b5b828206905092915050565b7f4e487b7100000000000000000000000000000000000000000000000000000000600052601160045260246000fd5b7f4e487b7100000000000000000000000000000000000000000000000000000000600052601260045260246000fd5b7f4e487b7100000000000000000000000000000000000000000000000000000000600052602260045260246000fd5b7f4e487b7100000000000000000000000000000000000000000000000000000000600052604160045260246000fd5b6000601f19601f8301169050919050565b613701816134c9565b811461370c57600080fd5b50565b613718816134db565b811461372357600080fd5b50565b61372f816134e7565b811461373a57600080fd5b50565b61374681613533565b811461375157600080fd5b5056fea264697066735822122094fcdc2594ac489582716484d487a601246be5d48d9358b33d2e440c0466036064736f6c63430008000033",
  "immutableReferences": {},
  "source": "// SPDX-License-Identifier: MIT\npragma solidity ^0.8.0;\n\nimport \"../node_modules/@openzeppelin/contracts/token/ERC721/ERC721.sol\";\nimport \"../node_modules/@openzeppelin/contracts/access/Ownable.sol\";\n\ncontract Token is ERC721, Ownable {\n\n    constructor (string memory _name, string memory _symbol) ERC721(_name, _symbol) {}\n\n    struct Pet {\n        string name;\n        uint256 level;\n        uint256 health;\n        uint256 lastMeal;\n        uint256 damage;\n        uint256 petId;\n    }\n\n    // Starting variables\n    uint256 startingLevel = 0;\n    uint256 startingHealth = 100000;\n    uint256 startingDamage = 1;\n    \n    uint256 creationFee = 0.0001 ether;\n    uint256 petIdCounter;\n\n\n    mapping (address => uint256) public OwnerToPetId;\n    mapping (address => Pet[]) public OwnerToAllPets;\n    mapping (uint256 => Pet) public PetIdToPetDetails;\n    \n\n\n    function mint(string memory _name) public payable onlyOwner {\n        // require(msg.value >= creationFee, \"Insufficient funds to create pet\");\n        Pet memory newPet = Pet(_name, startingLevel, startingHealth, block.timestamp, startingDamage, petIdCounter);\n        _safeMint(msg.sender, petIdCounter, \"\");\n        PetIdToPetDetails[petIdCounter] = newPet;\n        OwnerToAllPets[msg.sender].push(newPet);\n        OwnerToPetId[msg.sender] = petIdCounter;\n        petIdCounter++;\n    }\n\n    function feed (uint256 _petId) public {\n        // require(OwnerToPetId[msg.sender] == _petId, \"You are not the owner of this pet.\");\n        require((PetIdToPetDetails[_petId].lastMeal + PetIdToPetDetails[_petId].health) > block.timestamp); // Check if the pet has not feed in too long\n        Pet storage pet = PetIdToPetDetails[_petId];\n        pet.lastMeal = block.timestamp;\n    }\n\n    function getTokenDetails(uint256 _tokenId) public view returns (Pet memory) {\n        return PetIdToPetDetails[_tokenId];\n    }\n\n    function getAllOwnersPets(address _owner) public view returns (Pet[] memory) {\n        return OwnerToAllPets[_owner];\n    }\n\n\n\n    // OVERRIDE THE TRANSFER (public) FUNCTION TO CALL THE CHANGE MAPPINGS FUNCTION (internal) WHICH UPDATES THE MAPPINGS\n    // function _beforeTokenTransfer(address from, address to, uint256 _petId) internal override {\n    //     require(OwnerToPetId[msg.sender] == _petId, \"You are not the owner of this pet.\");\n    //     require(PetIdToPetDetails[_petId].lastMeal + PetIdToPetDetails[_petId].health > block.timestamp);\n        \n    //     // Move to new owner\n    //     OwnerToAllPets[to].push(PetIdToPetDetails[_petId]);\n    //     OwnerToPetId[to] = petIdCounter;\n\n    //     // Delete from old owner\n    //     delete OwnerToAllPets[from]._petId; // Not sure why its underlined\n    //     delete OwnerToPetId[from]._petId;\n\n    //     _transfer(from, to, _petId);\n    // }\n}",
  "sourcePath": "/home/dev/Desktop/Sol Course/Moralis/NFT_Game/contracts/Token.sol",
  "compiler": {
    "name": "solc",
    "version": "0.8.0+commit.c7dfd78e.Emscripten.clang"
  },
  "schemaVersion": "3.4.3",
  "updatedAt": "2021-10-06T02:15:27.925Z",
  "networkType": "ethereum",
  "devdoc": {
    "kind": "dev",
    "methods": {
      "approve(address,uint256)": {
        "details": "See {IERC721-approve}."
      },
      "balanceOf(address)": {
        "details": "See {IERC721-balanceOf}."
      },
      "getApproved(uint256)": {
        "details": "See {IERC721-getApproved}."
      },
      "isApprovedForAll(address,address)": {
        "details": "See {IERC721-isApprovedForAll}."
      },
      "name()": {
        "details": "See {IERC721Metadata-name}."
      },
      "owner()": {
        "details": "Returns the address of the current owner."
      },
      "ownerOf(uint256)": {
        "details": "See {IERC721-ownerOf}."
      },
      "renounceOwnership()": {
        "details": "Leaves the contract without owner. It will not be possible to call `onlyOwner` functions anymore. Can only be called by the current owner. NOTE: Renouncing ownership will leave the contract without an owner, thereby removing any functionality that is only available to the owner."
      },
      "safeTransferFrom(address,address,uint256)": {
        "details": "See {IERC721-safeTransferFrom}."
      },
      "safeTransferFrom(address,address,uint256,bytes)": {
        "details": "See {IERC721-safeTransferFrom}."
      },
      "setApprovalForAll(address,bool)": {
        "details": "See {IERC721-setApprovalForAll}."
      },
      "supportsInterface(bytes4)": {
        "details": "See {IERC165-supportsInterface}."
      },
      "symbol()": {
        "details": "See {IERC721Metadata-symbol}."
      },
      "tokenURI(uint256)": {
        "details": "See {IERC721Metadata-tokenURI}."
      },
      "transferFrom(address,address,uint256)": {
        "details": "See {IERC721-transferFrom}."
      },
      "transferOwnership(address)": {
        "details": "Transfers ownership of the contract to a new account (`newOwner`). Can only be called by the current owner."
      }
    },
    "version": 1
  },
  "userdoc": {
    "kind": "user",
    "methods": {},
    "version": 1
  }
}